{
    "_format": "hh-sol-artifact-1",
    "contractName": "Web3RSVP",
    "sourceName": "contracts/Web3RSVP.sol",
    "abi": [
        {
            "anonymous": false,
            "inputs": [
                {
                    "indexed": false,
                    "internalType": "bytes32",
                    "name": "eventID",
                    "type": "bytes32"
                },
                {
                    "indexed": false,
                    "internalType": "address",
                    "name": "attendeeAddress",
                    "type": "address"
                }
            ],
            "name": "ConfirmedAttendee",
            "type": "event"
        },
        {
            "anonymous": false,
            "inputs": [
                {
                    "indexed": false,
                    "internalType": "bytes32",
                    "name": "eventID",
                    "type": "bytes32"
                }
            ],
            "name": "DepositsPaidOut",
            "type": "event"
        },
        {
            "anonymous": false,
            "inputs": [
                {
                    "indexed": false,
                    "internalType": "bytes32",
                    "name": "eventID",
                    "type": "bytes32"
                },
                {
                    "indexed": false,
                    "internalType": "address",
                    "name": "creatorAddress",
                    "type": "address"
                },
                {
                    "indexed": false,
                    "internalType": "uint256",
                    "name": "eventTimestamp",
                    "type": "uint256"
                },
                {
                    "indexed": false,
                    "internalType": "uint256",
                    "name": "maxCapacity",
                    "type": "uint256"
                },
                {
                    "indexed": false,
                    "internalType": "uint256",
                    "name": "deposit",
                    "type": "uint256"
                },
                {
                    "indexed": false,
                    "internalType": "string",
                    "name": "eventDataCID",
                    "type": "string"
                }
            ],
            "name": "NewEventCreated",
            "type": "event"
        },
        {
            "anonymous": false,
            "inputs": [
                {
                    "indexed": false,
                    "internalType": "bytes32",
                    "name": "eventID",
                    "type": "bytes32"
                },
                {
                    "indexed": false,
                    "internalType": "address",
                    "name": "attendeeAddress",
                    "type": "address"
                }
            ],
            "name": "NewRSVP",
            "type": "event"
        },
        {
            "inputs": [
                {
                    "internalType": "uint256",
                    "name": "eventTimestamp",
                    "type": "uint256"
                },
                {
                    "internalType": "uint256",
                    "name": "deposit",
                    "type": "uint256"
                },
                {
                    "internalType": "uint256",
                    "name": "maxCapacity",
                    "type": "uint256"
                },
                {
                    "internalType": "string",
                    "name": "eventDataCID",
                    "type": "string"
                }
            ],
            "name": "CreateNewEvent",
            "outputs": [],
            "stateMutability": "nonpayable",
            "type": "function"
        },
        {
            "inputs": [
                {
                    "internalType": "bytes32",
                    "name": "eventId",
                    "type": "bytes32"
                }
            ],
            "name": "confirmAllAttendees",
            "outputs": [],
            "stateMutability": "nonpayable",
            "type": "function"
        },
        {
            "inputs": [
                {
                    "internalType": "bytes32",
                    "name": "eventId",
                    "type": "bytes32"
                },
                {
                    "internalType": "address",
                    "name": "attendee",
                    "type": "address"
                }
            ],
            "name": "confirmAttendee",
            "outputs": [],
            "stateMutability": "nonpayable",
            "type": "function"
        },
        {
            "inputs": [
                {
                    "internalType": "bytes32",
                    "name": "eventId",
                    "type": "bytes32"
                }
            ],
            "name": "createNewRSVP",
            "outputs": [],
            "stateMutability": "payable",
            "type": "function"
        },
        {
            "inputs": [
                {
                    "internalType": "bytes32",
                    "name": "",
                    "type": "bytes32"
                }
            ],
            "name": "idToEvent",
            "outputs": [
                {
                    "internalType": "bytes32",
                    "name": "eventId",
                    "type": "bytes32"
                },
                {
                    "internalType": "string",
                    "name": "eventDataCID",
                    "type": "string"
                },
                {
                    "internalType": "address",
                    "name": "eventOwner",
                    "type": "address"
                },
                {
                    "internalType": "uint256",
                    "name": "eventTimestamp",
                    "type": "uint256"
                },
                {
                    "internalType": "uint256",
                    "name": "deposit",
                    "type": "uint256"
                },
                {
                    "internalType": "uint256",
                    "name": "maxCapacity",
                    "type": "uint256"
                },
                {
                    "internalType": "bool",
                    "name": "paidOut",
                    "type": "bool"
                }
            ],
            "stateMutability": "view",
            "type": "function"
        },
        {
            "inputs": [
                {
                    "internalType": "bytes32",
                    "name": "eventId",
                    "type": "bytes32"
                }
            ],
            "name": "withdrawUnclaimedDeposits",
            "outputs": [],
            "stateMutability": "nonpayable",
            "type": "function"
        }
    ],
    "bytecode": "0x608060405234801561001057600080fd5b506121c7806100206000396000f3fe6080604052600436106100555760003560e01c806317f0165a1461005a5780636dcdf2cd14610076578063797475711461009f578063909ef021146100c8578063a10ed16e1461010b578063acdbe01214610134575b600080fd5b610074600480360381019061006f91906114cc565b61015d565b005b34801561008257600080fd5b5061009d60048036038101906100989190611557565b6103c4565b005b3480156100ab57600080fd5b506100c660048036038101906100c191906114cc565b610863565b005b3480156100d457600080fd5b506100ef60048036038101906100ea91906114cc565b610d1b565b6040516101029796959493929190611682565b60405180910390f35b34801561011757600080fd5b50610132600480360381019061012d9190611789565b610e12565b005b34801561014057600080fd5b5061015b600480360381019061015691906114cc565b61102e565b005b60008060008381526020019081526020016000209050806004015434146101b9576040517f08c379a00000000000000000000000000000000000000000000000000000000081526004016101b09061185d565b60405180910390fd5b8060030154421115610200576040517f08c379a00000000000000000000000000000000000000000000000000000000081526004016101f7906118c9565b60405180910390fd5b806005015481600601805490501061024d576040517f08c379a00000000000000000000000000000000000000000000000000000000081526004016102449061195b565b60405180910390fd5b60005b8160060180549050811015610321573373ffffffffffffffffffffffffffffffffffffffff1682600601828154811061028c5761028b61197b565b5b9060005260206000200160009054906101000a900473ffffffffffffffffffffffffffffffffffffffff1673ffffffffffffffffffffffffffffffffffffffff16141561030e576040517f08c379a0000000000000000000000000000000000000000000000000000000008152600401610305906119f6565b60405180910390fd5b808061031990611a45565b915050610250565b5080600601339080600181540180825580915050600190039060005260206000200160009091909190916101000a81548173ffffffffffffffffffffffffffffffffffffffff021916908373ffffffffffffffffffffffffffffffffffffffff1602179055507fb79f4240bbdd272d98e02a5db7f0cf156e5fc000961c517670a26eeeec63ed9082336040516103b8929190611a8e565b60405180910390a15050565b600080600084815260200190815260200160002090508060020160009054906101000a900473ffffffffffffffffffffffffffffffffffffffff1673ffffffffffffffffffffffffffffffffffffffff163373ffffffffffffffffffffffffffffffffffffffff161461046c576040517f08c379a000000000000000000000000000000000000000000000000000000000815260040161046390611b03565b60405180910390fd5b600080600090505b826006018054905081101561054e578373ffffffffffffffffffffffffffffffffffffffff168360060182815481106104b0576104af61197b565b5b9060005260206000200160009054906101000a900473ffffffffffffffffffffffffffffffffffffffff1673ffffffffffffffffffffffffffffffffffffffff16141561053b5782600601818154811061050d5761050c61197b565b5b9060005260206000200160009054906101000a900473ffffffffffffffffffffffffffffffffffffffff1691505b808061054690611a45565b915050610474565b508273ffffffffffffffffffffffffffffffffffffffff168173ffffffffffffffffffffffffffffffffffffffff16146105bd576040517f08c379a00000000000000000000000000000000000000000000000000000000081526004016105b490611b6f565b60405180910390fd5b60005b82600701805490508160ff161015610697578373ffffffffffffffffffffffffffffffffffffffff16836007018260ff16815481106106025761060161197b565b5b9060005260206000200160009054906101000a900473ffffffffffffffffffffffffffffffffffffffff1673ffffffffffffffffffffffffffffffffffffffff161415610684576040517f08c379a000000000000000000000000000000000000000000000000000000000815260040161067b90611bdb565b60405180910390fd5b808061068f90611c08565b9150506105c0565b50600015158260080160009054906101000a900460ff161515146106f0576040517f08c379a00000000000000000000000000000000000000000000000000000000081526004016106e790611c7e565b60405180910390fd5b60008373ffffffffffffffffffffffffffffffffffffffff16836004015460405161071a90611ccf565b60006040518083038185875af1925050503d8060008114610757576040519150601f19603f3d011682016040523d82523d6000602084013e61075c565b606091505b50509050806107af578260070180548061077957610778611ce4565b5b6001900381819060005260206000200160006101000a81549073ffffffffffffffffffffffffffffffffffffffff021916905590555b806107ef576040517f08c379a00000000000000000000000000000000000000000000000000000000081526004016107e690611d5f565b60405180910390fd5b8260060180549050836007018054905014156108235760018360080160006101000a81548160ff0219169083151502179055505b7ff8d1583a733d83bdd3ef5464129d0a95a36d62b382d31c6d0467a61f4264381b8585604051610854929190611a8e565b60405180910390a15050505050565b6000806000838152602001908152602001600020604051806101200160405290816000820154815260200160018201805461089d90611dae565b80601f01602080910402602001604051908101604052809291908181526020018280546108c990611dae565b80156109165780601f106108eb57610100808354040283529160200191610916565b820191906000526020600020905b8154815290600101906020018083116108f957829003601f168201915b505050505081526020016002820160009054906101000a900473ffffffffffffffffffffffffffffffffffffffff1673ffffffffffffffffffffffffffffffffffffffff1673ffffffffffffffffffffffffffffffffffffffff16815260200160038201548152602001600482015481526020016005820154815260200160068201805480602002602001604051908101604052809291908181526020018280548015610a1857602002820191906000526020600020905b8160009054906101000a900473ffffffffffffffffffffffffffffffffffffffff1673ffffffffffffffffffffffffffffffffffffffff16815260200190600101908083116109ce575b5050505050815260200160078201805480602002602001604051908101604052809291908181526020018280548015610aa657602002820191906000526020600020905b8160009054906101000a900473ffffffffffffffffffffffffffffffffffffffff1673ffffffffffffffffffffffffffffffffffffffff1681526020019060010190808311610a5c575b505050505081526020016008820160009054906101000a900460ff161515151581525050905080610100015115610b12576040517f08c379a0000000000000000000000000000000000000000000000000000000008152600401610b0990611e2c565b60405180910390fd5b62093a808160600151610b259190611e4c565b421015610b67576040517f08c379a0000000000000000000000000000000000000000000000000000000008152600401610b5e90611eee565b60405180910390fd5b806040015173ffffffffffffffffffffffffffffffffffffffff163373ffffffffffffffffffffffffffffffffffffffff1614610bd9576040517f08c379a0000000000000000000000000000000000000000000000000000000008152600401610bd090611f5a565b60405180910390fd5b60008160e00151518260c0015151610bf19190611f7a565b90506000826080015182610c059190611fae565b905060018361010001901515908115158152505060003373ffffffffffffffffffffffffffffffffffffffff1682604051610c3f90611ccf565b60006040518083038185875af1925050503d8060008114610c7c576040519150601f19603f3d011682016040523d82523d6000602084013e610c81565b606091505b5050905080610c9d576000846101000190151590811515815250505b80610cdd576040517f08c379a0000000000000000000000000000000000000000000000000000000008152600401610cd490611d5f565b60405180910390fd5b7f393073ea1365f611c3d2f240c992960d2b99dc81715555d3fc40fc55ba80af9c85604051610d0c9190612008565b60405180910390a15050505050565b6000602052806000526040600020600091509050806000015490806001018054610d4490611dae565b80601f0160208091040260200160405190810160405280929190818152602001828054610d7090611dae565b8015610dbd5780601f10610d9257610100808354040283529160200191610dbd565b820191906000526020600020905b815481529060010190602001808311610da057829003601f168201915b5050505050908060020160009054906101000a900473ffffffffffffffffffffffffffffffffffffffff16908060030154908060040154908060050154908060080160009054906101000a900460ff16905087565b60003330878787604051602001610e2d95949392919061208c565b60405160208183030381529060405280519060200120905060608060405180610120016040528084815260200186868080601f016020809104026020016040519081016040528093929190818152602001838380828437600081840152601f19601f8201169050808301925050505050505081526020013373ffffffffffffffffffffffffffffffffffffffff16815260200189815260200188815260200187815260200183815260200182815260200160001515815250600080858152602001908152602001600020600082015181600001556020820151816001019080519060200190610f1d92919061135f565b5060408201518160020160006101000a81548173ffffffffffffffffffffffffffffffffffffffff021916908373ffffffffffffffffffffffffffffffffffffffff160217905550606082015181600301556080820151816004015560a0820151816005015560c0820151816006019080519060200190610f9f9291906113e5565b5060e0820151816007019080519060200190610fbc9291906113e5565b506101008201518160080160006101000a81548160ff0219169083151502179055509050507f2553138c3f9c9008f266dbdbe9fc64f5b71e098d06ef714a190a65a8b9fc6bf383338a898b8a8a60405161101c9796959493929190612127565b60405180910390a15050505050505050565b6000806000838152602001908152602001600020604051806101200160405290816000820154815260200160018201805461106890611dae565b80601f016020809104026020016040519081016040528092919081815260200182805461109490611dae565b80156110e15780601f106110b6576101008083540402835291602001916110e1565b820191906000526020600020905b8154815290600101906020018083116110c457829003601f168201915b505050505081526020016002820160009054906101000a900473ffffffffffffffffffffffffffffffffffffffff1673ffffffffffffffffffffffffffffffffffffffff1673ffffffffffffffffffffffffffffffffffffffff168152602001600382015481526020016004820154815260200160058201548152602001600682018054806020026020016040519081016040528092919081815260200182805480156111e357602002820191906000526020600020905b8160009054906101000a900473ffffffffffffffffffffffffffffffffffffffff1673ffffffffffffffffffffffffffffffffffffffff1681526020019060010190808311611199575b505050505081526020016007820180548060200260200160405190810160405280929190818152602001828054801561127157602002820191906000526020600020905b8160009054906101000a900473ffffffffffffffffffffffffffffffffffffffff1673ffffffffffffffffffffffffffffffffffffffff1681526020019060010190808311611227575b505050505081526020016008820160009054906101000a900460ff1615151515815250509050806040015173ffffffffffffffffffffffffffffffffffffffff163373ffffffffffffffffffffffffffffffffffffffff1614611309576040517f08c379a000000000000000000000000000000000000000000000000000000000815260040161130090611b03565b60405180910390fd5b60005b8160c00151518160ff16101561135a57611347838360c001518360ff168151811061133a5761133961197b565b5b60200260200101516103c4565b808061135290611c08565b91505061130c565b505050565b82805461136b90611dae565b90600052602060002090601f01602090048101928261138d57600085556113d4565b82601f106113a657805160ff19168380011785556113d4565b828001600101855582156113d4579182015b828111156113d35782518255916020019190600101906113b8565b5b5090506113e1919061146f565b5090565b82805482825590600052602060002090810192821561145e579160200282015b8281111561145d5782518260006101000a81548173ffffffffffffffffffffffffffffffffffffffff021916908373ffffffffffffffffffffffffffffffffffffffff16021790555091602001919060010190611405565b5b50905061146b919061146f565b5090565b5b80821115611488576000816000905550600101611470565b5090565b600080fd5b600080fd5b6000819050919050565b6114a981611496565b81146114b457600080fd5b50565b6000813590506114c6816114a0565b92915050565b6000602082840312156114e2576114e161148c565b5b60006114f0848285016114b7565b91505092915050565b600073ffffffffffffffffffffffffffffffffffffffff82169050919050565b6000611524826114f9565b9050919050565b61153481611519565b811461153f57600080fd5b50565b6000813590506115518161152b565b92915050565b6000806040838503121561156e5761156d61148c565b5b600061157c858286016114b7565b925050602061158d85828601611542565b9150509250929050565b6115a081611496565b82525050565b600081519050919050565b600082825260208201905092915050565b60005b838110156115e05780820151818401526020810190506115c5565b838111156115ef576000848401525b50505050565b6000601f19601f8301169050919050565b6000611611826115a6565b61161b81856115b1565b935061162b8185602086016115c2565b611634816115f5565b840191505092915050565b61164881611519565b82525050565b6000819050919050565b6116618161164e565b82525050565b60008115159050919050565b61167c81611667565b82525050565b600060e082019050611697600083018a611597565b81810360208301526116a98189611606565b90506116b8604083018861163f565b6116c56060830187611658565b6116d26080830186611658565b6116df60a0830185611658565b6116ec60c0830184611673565b98975050505050505050565b6117018161164e565b811461170c57600080fd5b50565b60008135905061171e816116f8565b92915050565b600080fd5b600080fd5b600080fd5b60008083601f84011261174957611748611724565b5b8235905067ffffffffffffffff81111561176657611765611729565b5b6020830191508360018202830111156117825761178161172e565b5b9250929050565b6000806000806000608086880312156117a5576117a461148c565b5b60006117b38882890161170f565b95505060206117c48882890161170f565b94505060406117d58882890161170f565b935050606086013567ffffffffffffffff8111156117f6576117f5611491565b5b61180288828901611733565b92509250509295509295909350565b7f4e4f5420454e4f55474800000000000000000000000000000000000000000000600082015250565b6000611847600a836115b1565b915061185282611811565b602082019050919050565b600060208201905081810360008301526118768161183a565b9050919050565b7f414c52454144592048415050454e454400000000000000000000000000000000600082015250565b60006118b36010836115b1565b91506118be8261187d565b602082019050919050565b600060208201905081810360008301526118e2816118a6565b9050919050565b7f54686973206576656e74206861732072656163686564206d617820636170617060008201527f6369747900000000000000000000000000000000000000000000000000000000602082015250565b60006119456024836115b1565b9150611950826118e9565b604082019050919050565b6000602082019050818103600083015261197481611938565b9050919050565b7f4e487b7100000000000000000000000000000000000000000000000000000000600052603260045260246000fd5b7f414c524541445920434f4e4649524d4544000000000000000000000000000000600082015250565b60006119e06011836115b1565b91506119eb826119aa565b602082019050919050565b60006020820190508181036000830152611a0f816119d3565b9050919050565b7f4e487b7100000000000000000000000000000000000000000000000000000000600052601160045260246000fd5b6000611a508261164e565b91507fffffffffffffffffffffffffffffffffffffffffffffffffffffffffffffffff821415611a8357611a82611a16565b5b600182019050919050565b6000604082019050611aa36000830185611597565b611ab0602083018461163f565b9392505050565b7f4e4f5420415554484f52495a4544000000000000000000000000000000000000600082015250565b6000611aed600e836115b1565b9150611af882611ab7565b602082019050919050565b60006020820190508181036000830152611b1c81611ae0565b9050919050565b7f4e4f205253565020544f20434f4e4649524d0000000000000000000000000000600082015250565b6000611b596012836115b1565b9150611b6482611b23565b602082019050919050565b60006020820190508181036000830152611b8881611b4c565b9050919050565b7f414c524541445920434c41494d45440000000000000000000000000000000000600082015250565b6000611bc5600f836115b1565b9150611bd082611b8f565b602082019050919050565b60006020820190508181036000830152611bf481611bb8565b9050919050565b600060ff82169050919050565b6000611c1382611bfb565b915060ff821415611c2757611c26611a16565b5b600182019050919050565b7f414c52454144592050414944204f555400000000000000000000000000000000600082015250565b6000611c686010836115b1565b9150611c7382611c32565b602082019050919050565b60006020820190508181036000830152611c9781611c5b565b9050919050565b600081905092915050565b50565b6000611cb9600083611c9e565b9150611cc482611ca9565b600082019050919050565b6000611cda82611cac565b9150819050919050565b7f4e487b7100000000000000000000000000000000000000000000000000000000600052603160045260246000fd5b7f4661696c656420746f2073656e64204574686572000000000000000000000000600082015250565b6000611d496014836115b1565b9150611d5482611d13565b602082019050919050565b60006020820190508181036000830152611d7881611d3c565b9050919050565b7f4e487b7100000000000000000000000000000000000000000000000000000000600052602260045260246000fd5b60006002820490506001821680611dc657607f821691505b60208210811415611dda57611dd9611d7f565b5b50919050565b7f50414944204f555420414c524541445900000000000000000000000000000000600082015250565b6000611e166010836115b1565b9150611e2182611de0565b602082019050919050565b60006020820190508181036000830152611e4581611e09565b9050919050565b6000611e578261164e565b9150611e628361164e565b9250827fffffffffffffffffffffffffffffffffffffffffffffffffffffffffffffffff03821115611e9757611e96611a16565b5b828201905092915050565b7f544f4f204541524c590000000000000000000000000000000000000000000000600082015250565b6000611ed86009836115b1565b9150611ee382611ea2565b602082019050919050565b60006020820190508181036000830152611f0781611ecb565b9050919050565b7f4e4f54204556454e54204f574e45522c20544849454621212100000000000000600082015250565b6000611f446019836115b1565b9150611f4f82611f0e565b602082019050919050565b60006020820190508181036000830152611f7381611f37565b9050919050565b6000611f858261164e565b9150611f908361164e565b925082821015611fa357611fa2611a16565b5b828203905092915050565b6000611fb98261164e565b9150611fc48361164e565b9250817fffffffffffffffffffffffffffffffffffffffffffffffffffffffffffffffff0483118215151615611ffd57611ffc611a16565b5b828202905092915050565b600060208201905061201d6000830184611597565b92915050565b60008160601b9050919050565b600061203b82612023565b9050919050565b600061204d82612030565b9050919050565b61206561206082611519565b612042565b82525050565b6000819050919050565b6120866120818261164e565b61206b565b82525050565b60006120988288612054565b6014820191506120a88287612054565b6014820191506120b88286612075565b6020820191506120c88285612075565b6020820191506120d88284612075565b6020820191508190509695505050505050565b82818337600083830152505050565b600061210683856115b1565b93506121138385846120eb565b61211c836115f5565b840190509392505050565b600060c08201905061213c600083018a611597565b612149602083018961163f565b6121566040830188611658565b6121636060830187611658565b6121706080830186611658565b81810360a08301526121838184866120fa565b90509897505050505050505056fea2646970667358221220cd1d6935923156f45afb7fc134858f484e64eedfe3b69604afcd589500708a7464736f6c63430008090033",
    "linkReferences": {},
    "deployedLinkReferences": {}
}